{
  "abi": [
    {
      "inputs": [
        {
          "internalType": "address",
          "name": "_vault",
          "type": "address"
        }
      ],
      "stateMutability": "nonpayable",
      "type": "constructor"
    },
    {
      "anonymous": false,
      "inputs": [
        {
          "indexed": true,
          "internalType": "address",
          "name": "previousOwner",
          "type": "address"
        },
        {
          "indexed": true,
          "internalType": "address",
          "name": "newOwner",
          "type": "address"
        }
      ],
      "name": "OwnershipTransferred",
      "type": "event"
    },
    {
      "inputs": [
        {
          "internalType": "address",
          "name": "_oracle_address",
          "type": "address"
        }
      ],
      "name": "getLatestPrice",
      "outputs": [
        {
          "internalType": "uint256",
          "name": "",
          "type": "uint256"
        }
      ],
      "stateMutability": "view",
      "type": "function"
    },
    {
      "inputs": [],
      "name": "owner",
      "outputs": [
        {
          "internalType": "address",
          "name": "",
          "type": "address"
        }
      ],
      "stateMutability": "view",
      "type": "function"
    },
    {
      "inputs": [],
      "name": "renounceOwnership",
      "outputs": [],
      "stateMutability": "nonpayable",
      "type": "function"
    },
    {
      "inputs": [],
      "name": "router",
      "outputs": [
        {
          "internalType": "address",
          "name": "",
          "type": "address"
        }
      ],
      "stateMutability": "view",
      "type": "function"
    },
    {
      "inputs": [
        {
          "internalType": "address",
          "name": "_token",
          "type": "address"
        },
        {
          "internalType": "uint256",
          "name": "_ratio",
          "type": "uint256"
        }
      ],
      "name": "setRatio",
      "outputs": [],
      "stateMutability": "nonpayable",
      "type": "function"
    },
    {
      "inputs": [
        {
          "internalType": "address",
          "name": "",
          "type": "address"
        }
      ],
      "name": "targetRatio",
      "outputs": [
        {
          "internalType": "uint256",
          "name": "",
          "type": "uint256"
        }
      ],
      "stateMutability": "view",
      "type": "function"
    },
    {
      "inputs": [],
      "name": "tokenA",
      "outputs": [
        {
          "internalType": "address",
          "name": "",
          "type": "address"
        }
      ],
      "stateMutability": "view",
      "type": "function"
    },
    {
      "inputs": [],
      "name": "tokenB",
      "outputs": [
        {
          "internalType": "address",
          "name": "",
          "type": "address"
        }
      ],
      "stateMutability": "view",
      "type": "function"
    },
    {
      "inputs": [
        {
          "internalType": "address",
          "name": "newOwner",
          "type": "address"
        }
      ],
      "name": "transferOwnership",
      "outputs": [],
      "stateMutability": "nonpayable",
      "type": "function"
    },
    {
      "inputs": [],
      "name": "vault",
      "outputs": [
        {
          "internalType": "address",
          "name": "",
          "type": "address"
        }
      ],
      "stateMutability": "view",
      "type": "function"
    }
  ],
  "bytecode": {
    "object": "0x60e0604052737a250d5630b4cf539739df2c5dacb4c659f2488d60805273a0b86991c6218b36c1d19d4a2e9eb0ce3606eb4860a05273c02aaa39b223fe8d0a0e5c4f27ead9083c756cc260c05234801561005857600080fd5b506040516105f63803806105f6833981016040819052610077916100f5565b610080336100a5565b600180546001600160a01b0319166001600160a01b0392909216919091179055610125565b600080546001600160a01b038381166001600160a01b0319831681178455604051919092169283917f8be0079c531659141344cd1fd0a4f28419497f9722a3daafe3b4186f6b6457e09190a35050565b60006020828403121561010757600080fd5b81516001600160a01b038116811461011e57600080fd5b9392505050565b60805160a05160c0516104a361015360003960006101420152600060bd0152600061019501526104a36000f3fe608060405234801561001057600080fd5b506004361061009e5760003560e01c8063715018a611610066578063715018a6146101645780638da5cb5b1461016c578063f2fde38b1461017d578063f887ea4014610190578063fbfa77cf146101b757600080fd5b806305752047146100a35780630fc63d10146100b857806316345f18146100fc5780634d7e60751461011d5780635f64b55b1461013d575b600080fd5b6100b66100b13660046103b7565b6101ca565b005b6100df7f000000000000000000000000000000000000000000000000000000000000000081565b6040516001600160a01b0390911681526020015b60405180910390f35b61010f61010a3660046103e1565b6101ee565b6040519081526020016100f3565b61010f61012b3660046103e1565b60026020526000908152604090205481565b6100df7f000000000000000000000000000000000000000000000000000000000000000081565b6100b661025f565b6000546001600160a01b03166100df565b6100b661018b3660046103e1565b610273565b6100df7f000000000000000000000000000000000000000000000000000000000000000081565b6001546100df906001600160a01b031681565b6101d26102f1565b6001600160a01b03909116600090815260026020526040902055565b600080826001600160a01b031663feaf968c6040518163ffffffff1660e01b815260040160a060405180830381865afa15801561022f573d6000803e3d6000fd5b505050506040513d601f19601f82011682018060405250810190610253919061041d565b50919695505050505050565b6102676102f1565b610271600061034b565b565b61027b6102f1565b6001600160a01b0381166102e55760405162461bcd60e51b815260206004820152602660248201527f4f776e61626c653a206e6577206f776e657220697320746865207a65726f206160448201526564647265737360d01b60648201526084015b60405180910390fd5b6102ee8161034b565b50565b6000546001600160a01b031633146102715760405162461bcd60e51b815260206004820181905260248201527f4f776e61626c653a2063616c6c6572206973206e6f7420746865206f776e657260448201526064016102dc565b600080546001600160a01b038381166001600160a01b0319831681178455604051919092169283917f8be0079c531659141344cd1fd0a4f28419497f9722a3daafe3b4186f6b6457e09190a35050565b80356001600160a01b03811681146103b257600080fd5b919050565b600080604083850312156103ca57600080fd5b6103d38361039b565b946020939093013593505050565b6000602082840312156103f357600080fd5b6103fc8261039b565b9392505050565b805169ffffffffffffffffffff811681146103b257600080fd5b600080600080600060a0868803121561043557600080fd5b61043e86610403565b945060208601519350604086015192506060860151915061046160808701610403565b9050929550929590935056fea26469706673582212203c55b7bfa3e7abb63016e64926c8ca6b30f3faf9981d8272ebe35d32ad75e3fc64736f6c63430008110033",
    "linkReferences": {}
  },
  "methodIdentifiers": {
    "getLatestPrice(address)": "16345f18",
    "owner()": "8da5cb5b",
    "renounceOwnership()": "715018a6",
    "router()": "f887ea40",
    "setRatio(address,uint256)": "05752047",
    "targetRatio(address)": "4d7e6075",
    "tokenA()": "0fc63d10",
    "tokenB()": "5f64b55b",
    "transferOwnership(address)": "f2fde38b",
    "vault()": "fbfa77cf"
  },
  "id": 22
}