{
  "abi": [
    {
      "inputs": [],
      "stateMutability": "nonpayable",
      "type": "constructor"
    },
    {
      "inputs": [],
      "name": "InsufficientSharesBalance",
      "type": "error"
    },
    {
      "inputs": [],
      "name": "InvalidAsset",
      "type": "error"
    },
    {
      "anonymous": false,
      "inputs": [
        {
          "indexed": true,
          "internalType": "address",
          "name": "owner",
          "type": "address"
        },
        {
          "indexed": true,
          "internalType": "address",
          "name": "spender",
          "type": "address"
        },
        {
          "indexed": false,
          "internalType": "uint256",
          "name": "value",
          "type": "uint256"
        }
      ],
      "name": "Approval",
      "type": "event"
    },
    {
      "anonymous": false,
      "inputs": [
        {
          "indexed": true,
          "internalType": "address",
          "name": "user",
          "type": "address"
        },
        {
          "indexed": false,
          "internalType": "address",
          "name": "token",
          "type": "address"
        },
        {
          "indexed": false,
          "internalType": "uint256",
          "name": "amount",
          "type": "uint256"
        }
      ],
      "name": "Deposit",
      "type": "event"
    },
    {
      "anonymous": false,
      "inputs": [
        {
          "indexed": true,
          "internalType": "address",
          "name": "previousOwner",
          "type": "address"
        },
        {
          "indexed": true,
          "internalType": "address",
          "name": "newOwner",
          "type": "address"
        }
      ],
      "name": "OwnershipTransferred",
      "type": "event"
    },
    {
      "anonymous": false,
      "inputs": [
        {
          "indexed": true,
          "internalType": "address",
          "name": "from",
          "type": "address"
        },
        {
          "indexed": true,
          "internalType": "address",
          "name": "to",
          "type": "address"
        },
        {
          "indexed": false,
          "internalType": "uint256",
          "name": "value",
          "type": "uint256"
        }
      ],
      "name": "Transfer",
      "type": "event"
    },
    {
      "anonymous": false,
      "inputs": [
        {
          "indexed": true,
          "internalType": "address",
          "name": "user",
          "type": "address"
        },
        {
          "indexed": false,
          "internalType": "address",
          "name": "token",
          "type": "address"
        },
        {
          "indexed": false,
          "internalType": "uint256",
          "name": "amount",
          "type": "uint256"
        }
      ],
      "name": "Withdrawn",
      "type": "event"
    },
    {
      "inputs": [
        {
          "internalType": "address",
          "name": "_token",
          "type": "address"
        }
      ],
      "name": "addNewERC20",
      "outputs": [],
      "stateMutability": "nonpayable",
      "type": "function"
    },
    {
      "inputs": [
        {
          "internalType": "address",
          "name": "owner",
          "type": "address"
        },
        {
          "internalType": "address",
          "name": "spender",
          "type": "address"
        }
      ],
      "name": "allowance",
      "outputs": [
        {
          "internalType": "uint256",
          "name": "",
          "type": "uint256"
        }
      ],
      "stateMutability": "view",
      "type": "function"
    },
    {
      "inputs": [
        {
          "internalType": "address",
          "name": "spender",
          "type": "address"
        },
        {
          "internalType": "uint256",
          "name": "amount",
          "type": "uint256"
        }
      ],
      "name": "approve",
      "outputs": [
        {
          "internalType": "bool",
          "name": "",
          "type": "bool"
        }
      ],
      "stateMutability": "nonpayable",
      "type": "function"
    },
    {
      "inputs": [
        {
          "internalType": "address",
          "name": "",
          "type": "address"
        }
      ],
      "name": "assetWeight",
      "outputs": [
        {
          "internalType": "uint256",
          "name": "",
          "type": "uint256"
        }
      ],
      "stateMutability": "view",
      "type": "function"
    },
    {
      "inputs": [
        {
          "internalType": "address",
          "name": "account",
          "type": "address"
        }
      ],
      "name": "balanceOf",
      "outputs": [
        {
          "internalType": "uint256",
          "name": "",
          "type": "uint256"
        }
      ],
      "stateMutability": "view",
      "type": "function"
    },
    {
      "inputs": [],
      "name": "decimals",
      "outputs": [
        {
          "internalType": "uint8",
          "name": "",
          "type": "uint8"
        }
      ],
      "stateMutability": "view",
      "type": "function"
    },
    {
      "inputs": [
        {
          "internalType": "address",
          "name": "spender",
          "type": "address"
        },
        {
          "internalType": "uint256",
          "name": "subtractedValue",
          "type": "uint256"
        }
      ],
      "name": "decreaseAllowance",
      "outputs": [
        {
          "internalType": "bool",
          "name": "",
          "type": "bool"
        }
      ],
      "stateMutability": "nonpayable",
      "type": "function"
    },
    {
      "inputs": [
        {
          "internalType": "address",
          "name": "_token",
          "type": "address"
        },
        {
          "internalType": "uint256",
          "name": "_amount",
          "type": "uint256"
        }
      ],
      "name": "deposit",
      "outputs": [],
      "stateMutability": "nonpayable",
      "type": "function"
    },
    {
      "inputs": [
        {
          "internalType": "address",
          "name": "spender",
          "type": "address"
        },
        {
          "internalType": "uint256",
          "name": "addedValue",
          "type": "uint256"
        }
      ],
      "name": "increaseAllowance",
      "outputs": [
        {
          "internalType": "bool",
          "name": "",
          "type": "bool"
        }
      ],
      "stateMutability": "nonpayable",
      "type": "function"
    },
    {
      "inputs": [
        {
          "internalType": "address",
          "name": "",
          "type": "address"
        }
      ],
      "name": "isAllowedAsset",
      "outputs": [
        {
          "internalType": "bool",
          "name": "",
          "type": "bool"
        }
      ],
      "stateMutability": "view",
      "type": "function"
    },
    {
      "inputs": [],
      "name": "name",
      "outputs": [
        {
          "internalType": "string",
          "name": "",
          "type": "string"
        }
      ],
      "stateMutability": "view",
      "type": "function"
    },
    {
      "inputs": [],
      "name": "owner",
      "outputs": [
        {
          "internalType": "address",
          "name": "",
          "type": "address"
        }
      ],
      "stateMutability": "view",
      "type": "function"
    },
    {
      "inputs": [
        {
          "internalType": "address",
          "name": "_token",
          "type": "address"
        }
      ],
      "name": "removeERC20",
      "outputs": [],
      "stateMutability": "nonpayable",
      "type": "function"
    },
    {
      "inputs": [],
      "name": "renounceOwnership",
      "outputs": [],
      "stateMutability": "nonpayable",
      "type": "function"
    },
    {
      "inputs": [],
      "name": "symbol",
      "outputs": [
        {
          "internalType": "string",
          "name": "",
          "type": "string"
        }
      ],
      "stateMutability": "view",
      "type": "function"
    },
    {
      "inputs": [],
      "name": "totalSupply",
      "outputs": [
        {
          "internalType": "uint256",
          "name": "",
          "type": "uint256"
        }
      ],
      "stateMutability": "view",
      "type": "function"
    },
    {
      "inputs": [
        {
          "internalType": "address",
          "name": "to",
          "type": "address"
        },
        {
          "internalType": "uint256",
          "name": "amount",
          "type": "uint256"
        }
      ],
      "name": "transfer",
      "outputs": [
        {
          "internalType": "bool",
          "name": "",
          "type": "bool"
        }
      ],
      "stateMutability": "nonpayable",
      "type": "function"
    },
    {
      "inputs": [
        {
          "internalType": "address",
          "name": "from",
          "type": "address"
        },
        {
          "internalType": "address",
          "name": "to",
          "type": "address"
        },
        {
          "internalType": "uint256",
          "name": "amount",
          "type": "uint256"
        }
      ],
      "name": "transferFrom",
      "outputs": [
        {
          "internalType": "bool",
          "name": "",
          "type": "bool"
        }
      ],
      "stateMutability": "nonpayable",
      "type": "function"
    },
    {
      "inputs": [
        {
          "internalType": "address",
          "name": "newOwner",
          "type": "address"
        }
      ],
      "name": "transferOwnership",
      "outputs": [],
      "stateMutability": "nonpayable",
      "type": "function"
    },
    {
      "inputs": [
        {
          "internalType": "address",
          "name": "_token",
          "type": "address"
        },
        {
          "internalType": "uint256",
          "name": "_shares",
          "type": "uint256"
        }
      ],
      "name": "withdraw",
      "outputs": [],
      "stateMutability": "nonpayable",
      "type": "function"
    }
  ],
  "bytecode": {
    "object": "0x60a060405260126080523480156200001657600080fd5b506040518060400160405280600c81526020016b15985b9a5b1b1855985d5b1d60a21b815250604051806040016040528060028152602001612b2b60f11b815250620000716200006b6200009760201b60201c565b6200009b565b60046200007f838262000190565b5060056200008e828262000190565b5050506200025c565b3390565b600080546001600160a01b038381166001600160a01b0319831681178455604051919092169283917f8be0079c531659141344cd1fd0a4f28419497f9722a3daafe3b4186f6b6457e09190a35050565b634e487b7160e01b600052604160045260246000fd5b600181811c908216806200011657607f821691505b6020821081036200013757634e487b7160e01b600052602260045260246000fd5b50919050565b601f8211156200018b57600081815260208120601f850160051c81016020861015620001665750805b601f850160051c820191505b81811015620001875782815560010162000172565b5050505b505050565b81516001600160401b03811115620001ac57620001ac620000eb565b620001c481620001bd845462000101565b846200013d565b602080601f831160018114620001fc5760008415620001e35750858301515b600019600386901b1c1916600185901b17855562000187565b600085815260208120601f198616915b828110156200022d578886015182559484019460019091019084016200020c565b50858210156200024c5787850151600019600388901b60f8161c191681555b5050505050600190811b01905550565b6080516112e56200027f60003960008181610cd90152610e3401526112e56000f3fe608060405234801561001057600080fd5b506004361061012c5760003560e01c80638da5cb5b116100ad578063b2c85f0d11610071578063b2c85f0d1461026e578063c537bed01461028e578063dd62ed3e146102b1578063f2fde38b146102c4578063f3fef3a3146102d757600080fd5b80638da5cb5b1461021257806395d89b411461022d578063a457c2d714610235578063a67755c214610248578063a9059cbb1461025b57600080fd5b806331df4d5e116100f457806331df4d5e146101a657806339509351146101bb57806347e7ef24146101ce57806370a08231146101e1578063715018a61461020a57600080fd5b806306fdde0314610131578063095ea7b31461014f57806318160ddd1461017257806323b872dd14610184578063313ce56714610197575b600080fd5b6101396102ea565b6040516101469190610fa6565b60405180910390f35b61016261015d366004611010565b61037c565b6040519015158152602001610146565b6003545b604051908152602001610146565b61016261019236600461103a565b610396565b60405160128152602001610146565b6101b96101b4366004611076565b6103ba565b005b6101626101c9366004611010565b6103e6565b6101b96101dc366004611010565b610408565b6101766101ef366004611076565b6001600160a01b031660009081526001602052604090205490565b6101b96105c4565b6000546040516001600160a01b039091168152602001610146565b6101396105d8565b610162610243366004611010565b6105e7565b6101b9610256366004611076565b610667565b610162610269366004611010565b610690565b61017661027c366004611076565b60076020526000908152604090205481565b61016261029c366004611076565b60066020526000908152604090205460ff1681565b6101766102bf366004611098565b61069e565b6101b96102d2366004611076565b6106c9565b6101b96102e5366004611010565b610742565b6060600480546102f9906110cb565b80601f0160208091040260200160405190810160405280929190818152602001828054610325906110cb565b80156103725780601f1061034757610100808354040283529160200191610372565b820191906000526020600020905b81548152906001019060200180831161035557829003601f168201915b5050505050905090565b60003361038a81858561092c565b60019150505b92915050565b6000336103a4858285610a51565b6103af858585610acb565b506001949350505050565b6103c2610c76565b6001600160a01b03166000908152600660205260409020805460ff19166001179055565b60003361038a8185856103f9838361069e565b610403919061111b565b61092c565b6001600160a01b03821660009081526006602052604090205460ff1661044157604051636448d6e960e11b815260040160405180910390fd5b6000826001600160a01b031663313ce5676040518163ffffffff1660e01b8152600401602060405180830381865afa158015610481573d6000803e3d6000fd5b505050506040513d601f19601f820116820180604052508101906104a5919061112e565b6040516323b872dd60e01b81523360048201523060248201526044810184905260ff9190911691506001600160a01b038416906323b872dd906064016020604051808303816000875af1158015610500573d6000803e3d6000fd5b505050506040513d601f19601f820116820180604052508101906105249190611151565b5060006105318383610cd0565b3360009081526008602090815260408083206001600160a01b038916845290915281208054929350839290919061056990849061111b565b9091555061057990503382610d1a565b604080516001600160a01b03861681526020810183905233917f5548c837ab068cf56a2c2479df0882a4922fd203edb7517321831d95078c5f6291015b60405180910390a250505050565b6105cc610c76565b6105d66000610ddb565b565b6060600580546102f9906110cb565b600033816105f5828661069e565b90508381101561065a5760405162461bcd60e51b815260206004820152602560248201527f45524332303a2064656372656173656420616c6c6f77616e63652062656c6f77604482015264207a65726f60d81b60648201526084015b60405180910390fd5b6103af828686840361092c565b61066f610c76565b6001600160a01b03166000908152600660205260409020805460ff19169055565b60003361038a818585610acb565b6001600160a01b03918216600090815260026020908152604080832093909416825291909152205490565b6106d1610c76565b6001600160a01b0381166107365760405162461bcd60e51b815260206004820152602660248201527f4f776e61626c653a206e6577206f776e657220697320746865207a65726f206160448201526564647265737360d01b6064820152608401610651565b61073f81610ddb565b50565b6001600160a01b03821660009081526006602052604090205460ff1661077b57604051636448d6e960e11b815260040160405180910390fd5b6000826001600160a01b031663313ce5676040518163ffffffff1660e01b8152600401602060405180830381865afa1580156107bb573d6000803e3d6000fd5b505050506040513d601f19601f820116820180604052508101906107df919061112e565b60ff16905060006107f08383610e2b565b3360009081526008602090815260408083206001600160a01b0389168452909152902054909150831115610837576040516301b9e7c360e01b815260040160405180910390fd5b6108413384610e7a565b3360009081526008602090815260408083206001600160a01b038816845290915281208054859290610874908490611173565b909155505060405163a9059cbb60e01b8152336004820152602481018290526001600160a01b0385169063a9059cbb906044016020604051808303816000875af11580156108c6573d6000803e3d6000fd5b505050506040513d601f19601f820116820180604052508101906108ea9190611151565b50604080516001600160a01b03861681526020810183905233917fd1c19fbcd4551a5edfb66d43d2e337c04837afda3482b42bdf569a8fccdae5fb91016105b6565b6001600160a01b03831661098e5760405162461bcd60e51b8152602060048201526024808201527f45524332303a20617070726f76652066726f6d20746865207a65726f206164646044820152637265737360e01b6064820152608401610651565b6001600160a01b0382166109ef5760405162461bcd60e51b815260206004820152602260248201527f45524332303a20617070726f766520746f20746865207a65726f206164647265604482015261737360f01b6064820152608401610651565b6001600160a01b0383811660008181526002602090815260408083209487168084529482529182902085905590518481527f8c5be1e5ebec7d5bd14f71427d1e84f3dd0314c0f7b2291e5b200ac8c7c3b92591015b60405180910390a3505050565b6000610a5d848461069e565b90506000198114610ac55781811015610ab85760405162461bcd60e51b815260206004820152601d60248201527f45524332303a20696e73756666696369656e7420616c6c6f77616e63650000006044820152606401610651565b610ac5848484840361092c565b50505050565b6001600160a01b038316610b2f5760405162461bcd60e51b815260206004820152602560248201527f45524332303a207472616e736665722066726f6d20746865207a65726f206164604482015264647265737360d81b6064820152608401610651565b6001600160a01b038216610b915760405162461bcd60e51b815260206004820152602360248201527f45524332303a207472616e7366657220746f20746865207a65726f206164647260448201526265737360e81b6064820152608401610651565b6001600160a01b03831660009081526001602052604090205481811015610c095760405162461bcd60e51b815260206004820152602660248201527f45524332303a207472616e7366657220616d6f756e7420657863656564732062604482015265616c616e636560d01b6064820152608401610651565b6001600160a01b0380851660008181526001602052604080822086860390559286168082529083902080548601905591517fddf252ad1be2c89b69c2b068fc378daa952ba7f163c4a11628f55a4df523b3ef90610c699086815260200190565b60405180910390a3610ac5565b6000546001600160a01b031633146105d65760405162461bcd60e51b815260206004820181905260248201527f4f776e61626c653a2063616c6c6572206973206e6f7420746865206f776e65726044820152606401610651565b600080610cfd837f0000000000000000000000000000000000000000000000000000000000000000611173565b610d0890600a61126a565b610d129085611276565b949350505050565b6001600160a01b038216610d705760405162461bcd60e51b815260206004820152601f60248201527f45524332303a206d696e7420746f20746865207a65726f2061646472657373006044820152606401610651565b8060036000828254610d82919061111b565b90915550506001600160a01b0382166000818152600160209081526040808320805486019055518481527fddf252ad1be2c89b69c2b068fc378daa952ba7f163c4a11628f55a4df523b3ef910160405180910390a35050565b600080546001600160a01b038381166001600160a01b0319831681178455604051919092169283917f8be0079c531659141344cd1fd0a4f28419497f9722a3daafe3b4186f6b6457e09190a35050565b600080610e58837f0000000000000000000000000000000000000000000000000000000000000000611173565b90506000610e6782600a61126a565b610e71908661128d565b95945050505050565b6001600160a01b038216610eda5760405162461bcd60e51b815260206004820152602160248201527f45524332303a206275726e2066726f6d20746865207a65726f206164647265736044820152607360f81b6064820152608401610651565b6001600160a01b03821660009081526001602052604090205481811015610f4e5760405162461bcd60e51b815260206004820152602260248201527f45524332303a206275726e20616d6f756e7420657863656564732062616c616e604482015261636560f01b6064820152608401610651565b6001600160a01b03831660008181526001602090815260408083208686039055600380548790039055518581529192917fddf252ad1be2c89b69c2b068fc378daa952ba7f163c4a11628f55a4df523b3ef9101610a44565b600060208083528351808285015260005b81811015610fd357858101830151858201604001528201610fb7565b506000604082860101526040601f19601f8301168501019250505092915050565b80356001600160a01b038116811461100b57600080fd5b919050565b6000806040838503121561102357600080fd5b61102c83610ff4565b946020939093013593505050565b60008060006060848603121561104f57600080fd5b61105884610ff4565b925061106660208501610ff4565b9150604084013590509250925092565b60006020828403121561108857600080fd5b61109182610ff4565b9392505050565b600080604083850312156110ab57600080fd5b6110b483610ff4565b91506110c260208401610ff4565b90509250929050565b600181811c908216806110df57607f821691505b6020821081036110ff57634e487b7160e01b600052602260045260246000fd5b50919050565b634e487b7160e01b600052601160045260246000fd5b8082018082111561039057610390611105565b60006020828403121561114057600080fd5b815160ff8116811461109157600080fd5b60006020828403121561116357600080fd5b8151801515811461109157600080fd5b8181038181111561039057610390611105565b600181815b808511156111c15781600019048211156111a7576111a7611105565b808516156111b457918102915b93841c939080029061118b565b509250929050565b6000826111d857506001610390565b816111e557506000610390565b81600181146111fb576002811461120557611221565b6001915050610390565b60ff84111561121657611216611105565b50506001821b610390565b5060208310610133831016604e8410600b8410161715611244575081810a610390565b61124e8383611186565b806000190482111561126257611262611105565b029392505050565b600061109183836111c9565b808202811582820484141761039057610390611105565b6000826112aa57634e487b7160e01b600052601260045260246000fd5b50049056fea2646970667358221220fd3ea5c08da8d39cd095f2f9f010d9ad7815b0927ad187d1b07068977dbd29ea64736f6c63430008110033",
    "linkReferences": {}
  },
  "methodIdentifiers": {
    "addNewERC20(address)": "31df4d5e",
    "allowance(address,address)": "dd62ed3e",
    "approve(address,uint256)": "095ea7b3",
    "assetWeight(address)": "b2c85f0d",
    "balanceOf(address)": "70a08231",
    "decimals()": "313ce567",
    "decreaseAllowance(address,uint256)": "a457c2d7",
    "deposit(address,uint256)": "47e7ef24",
    "increaseAllowance(address,uint256)": "39509351",
    "isAllowedAsset(address)": "c537bed0",
    "name()": "06fdde03",
    "owner()": "8da5cb5b",
    "removeERC20(address)": "a67755c2",
    "renounceOwnership()": "715018a6",
    "symbol()": "95d89b41",
    "totalSupply()": "18160ddd",
    "transfer(address,uint256)": "a9059cbb",
    "transferFrom(address,address,uint256)": "23b872dd",
    "transferOwnership(address)": "f2fde38b",
    "withdraw(address,uint256)": "f3fef3a3"
  },
  "id": 23
}